:020000040800F2
:1000000068050020F10100080B240008D722000831
:100010000924000865040008092D000800000000FC
:100020000000000000000000000000000F24000895
:1000300067040008000000000D24000811240008D7
:100040000B0200080B0200080B0200080B0200085C
:100050000B0200080B0200080B0200080B0200084C
:100060000B0200080B0200080B0200080B0200083C
:100070000B0200080B0200080B0200080B0200082C
:100080000B020008000000000B0200080B02000831
:100090000B0200080B0200080B0200080B0200080C
:1000A0000B0200080B0200088D2400080B02000858
:1000B0000B0200080B0200080B0200080B020008EC
:1000C0000B0200080B0200080B0200080B020008DC
:1000D0000B0200080B0200080B0200080B020008CC
:1000E0000B0200080B0200080B0200080B020008BC
:1000F0000B0200080B0200080B02000800000000C1
:10010000000000000B020008000000000B020008C5
:100110000B020008000000000B0200080B020008A0
:100120000B0200080B0200080B0200080B0200087B
:100130000B02000800000000000000000B02000895
:100140000B0200080B020008000000000000000085
:10015000000000000000000000000000000000009F
:100160000000000000000000000000000B0200087A
:100170000B0200080000000000000000000000006A
:10018000000000000B02000800000000000000005A
:10019000000000000000000000000000000000005F
:1001A00000000000000000000B0200080B02000825
:1001B0000B0200080B0200080B0200080000000000
:1001C000000000000B02000800000000000000001A
:1001D0000B0200080B020008DFF810D000F09AF8BC
:1001E00000480047D5310008AFF3008068050020C3
:1001F0000648804706480047FEE7FEE7FEE7FEE7C1
:10020000FEE7FEE7FEE7FEE7FEE7FEE77D240008E7
:10021000D90100082DE9F05F0546002092469B4673
:1002200088460646814640241BE02846414647460C
:10023000224600F05EF853465A46C01A914110D348
:1002400011461846224600F045F82D1A67EB0108C2
:100250004F4622460120002100F03CF817EB000930
:100260004E41201EA4F10104DFDC484631462A46F7
:100270004346BDE8F09FD2B201E000F8012B491ED1
:10028000FBD270470022F6E710B513460A46044633
:100290001946FFF7F0FF204610BD421C10F8011B65
:1002A0000029FBD1801A704730B50B46014600206B
:1002B0002022012409E021FA02F59D4205D303FA28
:1002C00002F5491B04FA02F52844151EA2F10102A9
:1002D000F1DC30BD202A04DB203A00FA02F10020D4
:1002E00070479140C2F1200320FA03F31943904074
:1002F0007047202A04DB203A21FA02F000217047DF
:1003000021FA02F3D040C2F120029140084319467D
:1003100070470000064C074D06E0E06840F001031E
:1003200094E8070098471034AC42F6D3FFF758FF23
:10033000783300089833000810B50022402108489F
:1003400000F020FA074C2069FFF7A7FF216982B26D
:10035000BDE810404FF47A73034801F065BF000018
:100360000008004800000020D400002010B5064C12
:10037000A069FFF792FFA16982B2BDE810404FF477
:100380007A73024801F050BF00000020D400002022
:1003900010B5064C6069FFF780FF616982B2BDE865
:1003A00010404FF47A73024801F03EBF0000002075
:1003B000D400002010B500221021084800F0E2F916
:1003C000074C2068FFF769FF216882B2BDE8104042
:1003D0004FF47A73034801F027BF0000000800487B
:1003E00000000020D400002010B5064CA068FFF7E4
:1003F00054FFA16882B2BDE810404FF47A730248FE
:1004000001F012BF00000020D400002010B501222E
:100410001021084800F0B6F9074C6068FFF73DFF6F
:10042000616882B2BDE810404FF47A73034801F06E
:10043000FBBE00000008004800000020D40000209F
:1004400010B5064CE068FFF728FFE16882B2BDE80E
:1004500010404FF47A73024801F0E6BE000000201D
:10046000D4000020FEE7704772B6FEE72DE9F84F92
:1004700000274FF0904ADFF85482DFF854B20D465F
:100480000446504513D0444511D05C450FD09148E7
:1004900084420CD09048844209D09048844206D0CF
:1004A0008F48844203D0A9218EA002F045FD286820
:1004B0000104090C01D0000C03D0AA2189A002F08C
:1004C0003BFD68684FF0030900281FD00128FCD0CD
:1004D0001128FAD00228F8D01228F6D0B0F5881FDB
:1004E000F3D0B0F5041FF0D0B0F5441FEDD0B0F557
:1004F000901FEAD0B0F5081FE7D0B0F5481FE4D050
:100500000328E2D0AB2177A002F016FDD6E001204F
:10051000B840009006407CD0287900F00300012804
:1005200001D002281DD1E86848B1012807D002286F
:1005300005D0032803D0BB216AA002F0FDFCA1680E
:10054000780009FA00F29143EA6882400A43A26007
:100550006068009988432979C1F30011B9400143CB
:1005600061602879C043800712D0A86838B101289B
:1005700005D0022803D0CC215AA002F0DDFCE268AD
:10058000780009FA00F18A43A96881401143E160CB
:10059000287900F00300022829D1544513D044459E
:1005A00011D05C450FD04B4884420CD04A4884425D
:1005B00009D04A48844206D04948844203D0D92110
:1005C00048A002F0B9FC28690F2803D9DA2145A018
:1005D00002F0B2FCF80804EB8000026A7907CB0E47
:1005E0000F2199408A43296999401143016221688A
:1005F000780009FA00F291432A7902F0030282405E
:100600000A432260686810F4403F56D04448016EA7
:1006100000E052E041F001010166006E27F00301A5
:1006200000F0010000903F4801448868BA07130FAA
:100630000F229A409043544501D1002217E04445CF
:1006400001D1012213E05C4501D102220FE0214AD1
:10065000944201D103220AE01F4A944201D10422AC
:1006600005E01E4A944201D1052200E006229A408C
:1006700002438A602C4A10686968B043C90200D5F9
:1006800030431060284A121D10686968B04389021F
:1006900000D5304310602449091F08686A68B043D8
:1006A000920300D5304308601F49083908686A681A
:1006B000B043D20300D5304308607F1C2E6836FA61
:1006C00007F07FF424AFBDE8F88F00000004004875
:1006D00000080048000C00480010004800140048C2
:1006E000001800482E2E2F447269766572732F53BE
:1006F000544D3332473478785F48414C5F447269D7
:100700007665722F5372632F73746D33326734784A
:10071000785F68616C5F6770696F2E63000000002E
:1007200000100240000001400804014070B50C00B8
:10073000054604D14FF4BD7103A002F0FDFB28690A
:10074000204000D0012070BD2E2E2F4472697665A6
:1007500072732F53544D3332473478785F48414C8D
:100760005F4472697665722F5372632F73746D33B1
:1007700032673478785F68616C5F6770696F2E6389
:100780000000000070B515460C00064604D14FF479
:10079000CD7107A002F0D0FB45B1012D04D040F28D
:1007A0009B1103A002F0C8FBB46170BDB46270BDC0
:1007B0002E2E2F447269766572732F53544D333247
:1007C000473478785F48414C5F4472697665722F90
:1007D0005372632F73746D3332673478785F686156
:1007E0006C5F6770696F2E630000000001488068CD
:1007F000704700001C0000200248816842681144D4
:10080000816070471C00002010B50024032000F018
:10081000C7F8002000F008F808B1012401E000F05A
:1008200025F8204610BD000070B50E4E0546002488
:10083000706898B14FF47A71B1FBF0F00A49096819
:10084000B1FBF0F001F07EF840B9102D06D2002285
:100850002946501E00F054F8356000E0012420467F
:1008600070BD00001C000020280000200A4882B053
:10087000016E41F001010166016E01F0010100917C
:10088000816D41F080518165806D00F08050009055
:1008900002B000F04BB900000010024010B5040097
:1008A00003D5D22107A002F047FB002C09DB04F09E
:1008B0001F01012088406109890001F1E021C1F890
:1008C000000110BD2E2E2F447269766572732F536E
:1008D000544D3332473478785F48414C5F447269F5
:1008E0007665722F5372632F73746D333267347869
:1008F000785F68616C5F636F727465782E63000067
:1009000070B515460C460646102A03D3BE2114A026
:1009100002F012FB102C03D3BF2111A002F00CFB3C
:100920001E480068C0F30223C3F107022046042AD0
:1009300000D90422191D072901D2002300E0DB1E83
:10094000012404FA02F1491E014099409C40641EB2
:100950002C4021433046BDE8704002F0EBB9000066
:100960002E2E2F447269766572732F53544D333295
:10097000473478785F48414C5F4472697665722FDE
:100980005372632F73746D3332673478785F6861A4
:100990006C5F636F727465782E6300000CED00E08D
:1009A00010B5044607280BD0062C09D0052C07D01B
:1009B000042C05D0032C03D0A62108A002F0BCFA19
:1009C000154904F0070208684FF6FF03184040EA93
:1009D0000220124A1043086010BD00002E2E2F4442
:1009E0007269766572732F53544D33324734787879
:1009F0005F48414C5F4472697665722F5372632F72
:100A000073746D3332673478785F68616C5F636FDD
:100A1000727465782E6300000CED00E00000FA05AA
:100A2000304910B50968304A3223304C5943D0B1AF
:100A3000B0F5007F0CD0B0F5806F03D09D212CA0C5
:100A400002F07AFA206820F4C06040F4806008E088
:100A50002068C0F3412002282AD054F8800F40F4C7
:100A6000807020603BE02068C0F34120022804D061
:100A700054F8800F20F48070F3E7D4F8800020F45D
:100A80008070C4F88000206820F4C06040F40070DA
:100A90002060B1FBF2F0401C00E0401E6169490596
:100AA00001D50028F9D16069400518D5032010BD93
:100AB000D4F8800040F48070C4F88000206820F4EE
:100AC000C06040F400702060B1FBF2F0401C00E018
:100AD000401E61694905E6D50028F9D1E3E7002009
:100AE00010BD00002800002040420F0000700040B0
:100AF0002E2E2F447269766572732F53544D333204
:100B0000473478785F48414C5F4472697665722F4C
:100B10005372632F73746D3332673478785F686112
:100B20006C5F7077725F65782E63000002488168A1
:100B300041F4804181607047007000402DE9F84326
:100B4000044600680026FF4DC10721D181071FD44C
:100B500041071DD401071BD4810619D4410617D4BF
:100B6000010615D4C10513D4810511D441050FD454
:100B700001050DD4C1040BD4810409D4410407D468
:100B8000010405D4000306D48321EFA002F0D4F9B8
:100B9000206800036DD5206C002760B1B0F5807F20
:100BA00009D0B0F5007F06D0B0F5407F03D08B218F
:100BB000E5A002F0C1F9A86DC00008D4A86D40F00E
:100BC0008050A865A86D012700F080500090DFF8E4
:100BD000B493D9F8001041F48071C9F80010FFF700
:100BE00005FE804606E000BFFFF700FEA0EB080010
:100BF00002282BD8D9F80000C005F5D5D5F890000B
:100C000010F4407014D0216C814211D0D5F89000BE
:100C1000D5F8901020F4407041F48031C5F8901060
:100C2000D5F8901021F48031C5F89010C5F89000E7
:100C3000C00711D0FFF7DAFD804641F2883907E09E
:100C4000FFF7D4FDA0EB0801494501D903260BE0CD
:100C5000D5F890008007F3D5D5F89000216C20F4EA
:100C600040700843C5F890001FB1A86D20F0805077
:100C7000A8652078C00713D0606848B1012807D064
:100C8000032805D0022803D0E021AFA002F054F9D8
:100C9000D5F88800616820F003000843C5F8880093
:100CA0002078800713D5A06848B1042807D00C2805
:100CB00005D0082803D0EA21A3A002F03DF9D5F819
:100CC0008800A16820F00C000843C5F8880020784F
:100CD000400713D5E06848B1102807D0302805D068
:100CE000202803D0F62198A002F026F9D5F8880034
:100CF000E16820F030000843C5F88800207800073C
:100D000014D5206950B1402808D0C02806D08028CA
:100D100004D040F203118CA002F00EF9D5F888003F
:100D2000216920F0C0000843C5F8880020788006BB
:100D300017D5606968B1B0F5806F0AD0B0F5406F23
:100D400007D0B0F5006F04D04FF48E717EA002F092
:100D5000F3F8D5F88800616920F440600843C5F8CD
:100D600088002078400614D5A06950B1B0F5805FA6
:100D700007D0B0F5005F04D04FF4937172A002F079
:100D8000DBF8D5F88800A16920F440500843C5F885
:100D900088002078000614D5E06950B1B0F5804F86
:100DA00007D0B0F5004F04D04FF4987166A002F060
:100DB000C3F8D5F88800E16920F440400843C5F83D
:100DC00088002088C00514D5206A50B1B0F5803F56
:100DD00007D0B0F5003F04D040F23B115AA002F01A
:100DE000ABF8D5F88800216A20F440300843C5F8F4
:100DF00088002088800517D5606A68B1B0F5802F1B
:100E00000AD0B0F5002F07D0B0F5402F04D04FF432
:100E1000AA714DA002F090F8D5F88800616A20F41C
:100E200040200843C5F88800208840051FD5A06AE7
:100E30004FF4801760B1B8420AD0B0F5001F07D058
:100E4000B0F5401F04D040F25F113FA002F074F8EB
:100E5000D5F88800A16A20F440100843C5F888003E
:100E6000A06AB84203D1E86840F48010E8602088A6
:100E700000051FD5E06A4FF4800760B1B8420AD080
:100E8000B0F5000F07D0B0F5400F04D04FF4B971A2
:100E90002DA002F051F8D5F88800E16A20F4400056
:100EA0000843C5F88800E06AB84203D1E86840F416
:100EB0008010E8602088C0041CD5206B4FF080773C
:100EC00048B1B84207D0B0F1007F04D040F285119C
:100ED0001DA002F031F8D5F88800216B20F0407099
:100EE0000843C5F88800206BB84203D1E86840F495
:100EF0008010E86020884FF00067800417D5606B91
:100F000030B1B84204D040F297110FA002F014F8AB
:100F1000D5F88800616B20F040600843C5F8880070
:100F2000606BB84203D1E86840F48010E860208824
:100F300040043BD5A06B38B3B84228D04FF4D371EE
:100F400001A022E0001002402E2E2F447269766527
:100F500072732F53544D3332473478785F48414C85
:100F60005F4472697665722F5372632F73746D33A9
:100F700032673478785F68616C5F7263635F65784D
:100F80002E6300000070004001E001F0D5FFD5F8AD
:100F90008800A16B20F040600843C5F88800A06B72
:100FA000B84203D1E86840F48010E860208800046B
:100FB0001DD5E06B4FF0805750B1B84208D0B0F16A
:100FC000005F05D04FF4DA71AFF2840001F0B4FF96
:100FD000D5F88800E16B20F040500843C5F8880040
:100FE000E06BB84203D1E86840F48030E8603046F6
:100FF000BDE8F8832DE9F0470D4606004FF00007E5
:101000005FD03068010701D0000904D040F20B31F5
:10101000A3A001F091FF15B3012D20D0022D1ED009
:10102000032D1CD0042D1AD0052D18D0062D16D056
:10103000072D14D0082D12D0092D10D00A2D0ED056
:101040000B2D0CD00C2D0AD00D2D08D00E2D06D056
:101050000F2D04D04FF4437191A001F06DFFDFF824
:101060007882D8F8000000F00F00A8420CD2D8F81F
:10107000001021F00F012943C8F80010D8F8000033
:1010800000F00F00A8421CD13078944CC00741F208
:10109000883A68D07068DFF8489201280DD002289D
:1010A0003BD0032810D040F223317DA001F044FF53
:1010B0007068032808D002282FD020684005002837
:1010C0002EDB0120BDE8F08720688001F9D5E068BB
:1010D00000F00301E068C0F30310401C03291AD09C
:1010E000804900BFB1FBF0F0E168C1F3062148433D
:1010F000E168C1F34161491C4900B0FBF1F048458A
:1011000019D9A06810F0F00F0ED03078800712D5F2
:10111000B06848B10FE07449E4E720688003CEE787
:1011200000F00EF9484506D9A06820F0F00040F024
:101130008000A0608027A068716820F00300084349
:10114000A060FFF753FB814606E000BFFFF74EFBB0
:10115000A0EB0901514550D8A068716800F00C005F
:10116000B0EB810FF2D1306881072BD5400703D552
:10117000A06840F4E060A0603078000705D5A06862
:1011800020F4605040F4E060A060B068A0B1802816
:1011900012D0902810D0A0280ED0B0280CD0C02893
:1011A0000AD0D02808D0E02806D0F02804D040F299
:1011B0007A313BA001F0C0FEA068B16820F0F000D9
:1011C000084304E0802F03D1A06820F0F000A06065
:1011D000D8F80010404601F00F01A94215D9016866
:1011E00021F00F0129430160FFF700FB074606E0ED
:1011F000FFF7FCFAC11B514501D9032062E7D8F87B
:10120000000000F00F00A842F2D130784FF4806562
:1012100040074FF4A0674FF4C0684FF4E06914D55D
:10122000F06860B1A8420AD0B84208D0404506D064
:10123000484504D04FF4677119A001F07DFEA06805
:10124000F16820F4E0600843A0603078000715D50D
:10125000306960B1A8420AD0B84208D0404506D0F3
:10126000484504D040F2A3310DA001F065FEA0680E
:10127000316920F4605040EAC100A06000F060F8DD
:10128000A1681A4AC1F30311515C01F01F01C84063
:101290001749086017480068BDE8F047FFF7C4BA6F
:1012A0002E2E2F447269766572732F53544D33324C
:1012B000473478785F48414C5F4472697665722F95
:1012C0005372632F73746D3332673478785F68615B
:1012D0006C5F7263632E63000020024000100240C6
:1012E00000B4C4040024F40000366E01EC3200089F
:1012F000280000201C000020054806490068896875
:10130000054AC1F30221515C01F01F01C84070473A
:101310002800002000100240FC3200080548064961
:1013200000688968054AC1F3C221515C01F01F01C0
:10133000C84070472800002000100240FC3200081E
:10134000184910B58868C0F381021748012A0BD0EC
:101350008A68164BC2F38102022A06D08A68C2F359
:101360008102032A03D0002010BD184610BDCA68B0
:1013700002F00304CA68C2F30312521C032C02D009
:10138000B0FBF2F001E0B3FBF2F0CA68C968C2F347
:1013900006225043C1F34161491C4900B0FBF1F002
:1013A00010BD0000001002400024F40000366E0161
:1013B0002DE9F84304007DD0FE4D206870B1C107CF
:1013C0000FD1810765D4810675D4010774D4400715
:1013D00073D440F24511F8A001F0AEFD2078C007AB
:1013E00054D060684FF480364FF4A02740B1B0422B
:1013F00006D0B84204D040F24B11EFA001F09CFDA2
:10140000A868E96800F00C0001F003010C2802D084
:10141000082809D001E0032906D06068B0420AD14B
:10142000286840F4803013E0286880032ED5606877
:101430000028C0D02AE0B842286803D140F48020B8
:101440002860EDE720F480302860286820F48020B0
:101450002860606868B1FFF7C9F9064605E000BF7B
:10146000FFF7C4F9801B64287ED828688003F7D56D
:101470000CE0FFF7BBF9064605E000BFFFF7B6F941
:10148000801B6428F0D828688003F7D42078800770
:1014900062D5E06838B1B0F5807F04D04FF4C071F8
:1014A000C5A001F049FD20697F2809D940F28111CA
:1014B000C1A003E0AEE04FE051E087E001F03CFD69
:1014C000A868E96800F00C0001F003010C2802D0C4
:1014D00004280DD001E002290AD0E068002828681D
:1014E0002AD040F480702860FFF780F9064618E0A3
:1014F0002868400502D5E06800289AD06868217CF9
:1015000020F0FE4040EA01606860B9480068FFF7DB
:101510008BF900287ED11FE0FFF768F9801B0228B5
:10152000A2D828684005F7D56868217C20F0FE40E5
:1015300040EA016068600FE020F480702860FFF7E7
:1015400055F9064605E000BFFFF750F9801B022859
:101550008AD828684005F7D42078000733D5606919
:10156000F0B1012808D000E0A9E14FF4E47192A0A5
:1015700001F0E2FC606998B1D5F8940040F00100F8
:10158000C5F89400FFF732F9064604E0FFF72EF99C
:10159000801B0228C4D8D5F894008007F6D512E045
:1015A000D5F8940020F00100C5F89400FFF71EF96B
:1015B000064604E0FFF71AF9801B0228B0D8D5F8D8
:1015C00094008007F6D4207840076FD5A0680026E5
:1015D00040B1012806D0052804D04FF4FA7176A056
:1015E00001F0AAFCA86DC00008D4A86D40F080509E
:1015F000A865A86D012600F0805000907D48016824
:10160000C90514D40168804641F480710160FFF778
:10161000EDF800E08DE1074605E000BFFFF7E6F8D2
:10162000C01B022894D8D8F80000C005F6D5A068E1
:10163000012815D00528D5F8900016D020F001001B
:10164000C5F89000D5F8900020F00400C5F890008F
:10165000A06841F28838B8B1FFF7C8F807460EE035
:10166000D5F8900040F00100F0E740F00400C5F824
:101670009000F5E7FFF7BAF8C11B41458AD8D5F8C5
:1016800090008007F6D50CE0FFF7B0F8074604E0BD
:10169000FFF7ACF8C11B414590D8D5F89000800702
:1016A000F6D41EB1A86D20F08050A8652078800681
:1016B00031D5A069E0B1012806D040F23B213EA01F
:1016C00001F03AFCA06998B1D5F8980040F001000B
:1016D000C5F89800FFF78AF8064604E0FFF786F899
:1016E000801B02289ED8D5F898008007F6D512E016
:1016F000D5F8980020F00100C5F89800FFF776F8BB
:10170000064604E0FFF772F8801B02288AD8D5F855
:1017100098008007F6D4E06900286DD0012809D030
:10172000022807D04FF4197123A001F005FCE069ED
:101730000028F2D0A868C0F381000328E06979D0BE
:10174000022807D0286820F080702860FFF74EF844
:101750000446B7E0206A40B1022806D0032804D02E
:1017600040F26E2114A001F0E7FB606A401E0F28D2
:1017700004D940F26F2110A001F0DEFBA06A083806
:10178000772804D94FF41C710BA001F0D5FBE06A57
:10179000801E1D2804D940F2712107A001F0CCFB66
:1017A000206B02282FD004282DD006282BD0082803
:1017B00029D022E0001002402E2E2F447269766557
:1017C00072732F53544D3332473478785F48414C0D
:1017D0005F4472697665722F5372632F73746D3331
:1017E00032673478785F68616C5F7263632E630080
:1017F0001C000020007000409DE040F27221AFF21A
:10180000480001F099FB606B02280BD0042809D036
:10181000062807D0082805D040F27321AFF26800EF
:1018200001F08AFB286820F080702860FEF7DEFF58
:10183000064606E04EE000BFFEF7D8FF801B0228F8
:101840003DD828688001F7D4F4E908016FF00F0251
:1018500002EB01110843218A5204490802EB41516D
:10186000A26841EA02210843217D4FF07E424908E7
:1018700002EB41610843217B40EAC160E9682F4ADD
:1018800011400843E860286840F080702860E868EC
:1018900040F08070E860FEF7A9FF044605E000BF55
:1018A000FEF7A4FF001B022809D828688001F7D59D
:1018B00041E000BFFEF79AFF001B022802D9032077
:1018C000BDE8F88328688001F4D4E8681C49084022
:1018D000E86030E00128F3D0E868226A00F00301F4
:1018E000914226D1616A00F0F0020901103991425B
:1018F0001FD1A26A00F4FE41B1EB022F19D194F876
:101900002C2000F07841B1EBC26F12D1218E00F48F
:10191000C00249084905A1F50011914209D194F886
:10192000341000F0C06049084906A1F100718142FD
:1019300001D00120C4E70020C2E700000C809F0115
:10194000FCFFEEFE10B5401EB0F1807F01D30120F8
:1019500010BD4FF0E02460610F21601701F0EAF93B
:101960000020A06107202061002010BD7047704753
:1019700070477047704770477047000070B50400AB
:101980004AD0464920684FF0804588421ED0A84280
:101990001CD04349884219D04249884216D0424956
:1019A000884213D04149884210D0414988420DD025
:1019B000404988420AD04049884207D03F4988427E
:1019C00004D04FF491713EA001F0B6FAA06860B166
:1019D00010280AD0202808D0402806D0602804D03B
:1019E00040F2231136A001F0A7FA206950B1B0F5FA
:1019F000807F07D0B0F5007F04D04FF4927130A003
:101A000001F09AFA2068A8420DD00068C004E0688E
:101A100004D44FF6FE7102E0012070BD3649401E2D
:101A2000884207D901E0E06820B940F2251124A0DE
:101A300001F082FAA06930B1802804D04FF493718C
:101A40001FA001F079FA94F83D0028B9002084F82D
:101A50003C00204600F052F8022084F83D00211D91
:101A6000206800F019FD012084F8480084F83E0049
:101A700084F83F0084F8400084F8410084F8420074
:101A800084F8430084F8440084F8450084F8460054
:101A900084F8470084F83D00002070BD002C014010
:101AA0000004004000080040001000400014004006
:101AB0000034014000400140004401400048014022
:101AC0002E2E2F447269766572732F53544D333224
:101AD000473478785F48414C5F4472697665722F6D
:101AE0005372632F73746D3332673478785F686133
:101AF0006C5F74696D2E6300EEFF0F0008B500681F
:101B00000B49884212D10B48016E41F480210166D5
:101B1000006E002200F48020009011461A20FEF78B
:101B2000EFFEBDE808401A20FEF7B8BE08BD000071
:101B300000480140001002402DE9F04707460068C8
:101B4000274C284D284EDFF8A480DFF8A4904FF0F2
:101B5000804AA0421AD0504518D0A84216D0B042B0
:101B600014D02449884211D0234988420ED04045E0
:101B70000CD048450AD02149884207D020498842E4
:101B800004D040F2DF111FA001F0D6F997F83D0014
:101B9000012802D00120BDE8F087022087F83D002F
:101BA0003868C16841F00101C1603868A04209D0BD
:101BB000504507D0A84205D0B04203D0404501D0DF
:101BC000484507D181681D4A1140062906D0B1F564
:101BD000803F03D0016841F0010101600020DAE795
:101BE000002C014000040040000800400034014087
:101BF000004001400010004000140040004401403B
:101C0000004801402E2E2F447269766572732F535F
:101C1000544D3332473478785F48414C5F447269A1
:101C20007665722F5372632F73746D333267347815
:101C3000785F68616C5F74696D2E63000700010056
:101C400070472DE9F04104460068C66805694FF009
:101C50000007A90713D5B10711D5F91E01610120AD
:101C60002077206880698007204602D0FFF7E8FFD0
:101C700004E000F0B7F8204600F0B5F827776807D1
:101C800016D5700714D521686FF004000861022092
:101C900020772068806910F4407F204602D0FFF74B
:101CA000CFFF04E000F09EF8204600F09CF8277774
:101CB000280715D5300713D521686FF00800086193
:101CC000042020772068C0698007204602D0FFF7F3
:101CD000B7FF04E000F086F8204600F084F827778C
:101CE000E80616D5F00614D521686FF010000861DB
:101CF000082020772068C06910F4407F204602D079
:101D0000FFF79EFF04E000F06DF8204600F06BF84E
:101D10002777E80708D0F00706D021686FF00100A8
:101D20000861204600F060F8280601D4A80408D510
:101D3000300606D521686FF4025008612046FFF78F
:101D400016FEE80508D5300606D521686FF48070C8
:101D500008612046FFF70AFE680608D5700606D51A
:101D600021686FF040000861204600F047F8A8069F
:101D700008D5B00606D521686FF02000086120461E
:101D8000FFF7F6FDE80208D5F00206D521686FF4EA
:101D9000801008612046FFF7EDFDA80208D5B002CB
:101DA00006D521686FF4001008612046FFF7E1FDB9
:101DB000680208D5700206D521686FF480000861BA
:101DC0002046FFF7D8FD28020AD5300208D5216841
:101DD0006FF4000008612046BDE8F041FFF7CCBD7C
:101DE000BDE8F0817047704700680349884201D11F
:101DF00001F0E2B970470000004801407047000060
:101E000010B5044600681949884210D01849884224
:101E10000DD0184988420AD01749884207D017497F
:101E2000884204D040F2362115A001F085F894F8DC
:101E30008400012818D0012084F884002420C4F8EC
:101E4000880020680168026822F00102026021F027
:101E5000005000216166226810602020C4F88800CC
:101E600084F88410084610BD022010BD00380140DF
:101E70000044004000480040004C0040008000400A
:101E80002E2E2F447269766572732F53544D333260
:101E9000473478785F48414C5F4472697665722FA9
:101EA0005372632F73746D3332673478785F68616F
:101EB0006C5F756172745F65782E630070B50D4656
:101EC000044600682649884210D0264988420DD031
:101ED000254988420AD02549884207D024498842AA
:101EE00004D040F2952123A001F026F89DB1B5F170
:101EF000007F10D0B5F1806F0DD0B5F1C06F0AD062
:101F0000B5F1006F07D0B5F1206F04D040F29621F3
:101F100018A001F011F894F8840001281DD00120C8
:101F200084F884002420C4F88800206806680168CA
:101F300021F0010101602068816821F0606129437E
:101F40008160204600F006FB206806602020C4F86F
:101F50008800002084F8840070BD022070BD00005D
:101F6000003801400044004000480040004C004060
:101F7000008000402E2E2F447269766572732F53B5
:101F8000544D3332473478785F48414C5F4472692E
:101F90007665722F5372632F73746D3332673478A2
:101FA000785F68616C5F756172745F65782E63003D
:101FB00070B50D46044600682649884210D026496F
:101FC00088420DD0254988420AD02549884207D049
:101FD0002449884204D04FF4197123A000F0ACFFCB
:101FE0009DB1B5F1005F10D0B5F1804F0DD0B5F1C6
:101FF000C04F0AD0B5F1004F07D0B5F1204F04D043
:1020000040F2652118A000F097FF94F884000128A1
:102010001DD0012084F884002420C4F888002068A2
:102020000668016821F0010101602068816821F0E3
:10203000604129438160204600F08CFA20680660E8
:102040002020C4F88800002084F8840070BD02209D
:1020500070BD0000003801400044004000480040CE
:10206000004C0040008000402E2E2F44726976659F
:1020700072732F53544D3332473478785F48414C54
:102080005F4472697665722F5372632F73746D3378
:1020900032673478785F68616C5F756172745F6510
:1020A000782E630070B5040015D0A0692A49002875
:1020B0002A4A2B4B2B4D2C4E20680ED088421BD029
:1020C000904219D0984217D0A84215D0B04213D0F0
:1020D0004FF49F710DE0012070BD88420CD09042FA
:1020E0000AD0984208D0A84206D0B04204D040F2AC
:1020F00043111EA000F020FFD4F8880028B900206A
:1021000084F88400204600F04FF82420C4F88800AA
:102110002068016821F001010160A06A10B1204629
:1021200000F03AFA204600F0BDFB0128D4D0206828
:10213000416821F4904141602068816821F02A01C2
:1021400081602068016841F0010101602046BDE81E
:10215000704000F027BB0000003801400044004000
:1021600000480040004C0040008000402E2E2F44CC
:102170007269766572732F53544D333247347878D1
:102180005F48414C5F4472697665722F5372632FCA
:1021900073746D3332673478785F68616C5F756132
:1021A00072742E630000000010B598B0044614212C
:1021B00011A8FEF767F844216846FEF763F817494F
:1021C0002068884227D104200024009003946846A8
:1021D000FEF7B4FC08B1FEF747F91148816D41F4F0
:1021E00080218165816D01F480211691C16C41F0DF
:1021F0000201C164C06C11A900F0020016904FF4F6
:10220000406011900220CDE912040720CDE914406E
:102210000448FEF72BF918B010BD0000004800403C
:1022200000100240000400482DE9F8430446D0F8AD
:102230008800984616460D46202802D00220BDE8A8
:10224000F883A5B19EB10020C4F890002120C4F805
:1022500088001834FEF7CAFAA6878146E68754F844
:10226000100C2027183CB0F5805F02D003E001205D
:10227000E5E7206910B12E46002510E000260EE0AB
:102280008021204600F0F6FCC0B9DEB116F8010B43
:1022900021688862B4F85600401EA4F85600B4F8CD
:1022A00056004B464FF00002CDF800800028E7D1E1
:1022B0004FF04001204600F0DDFC40B1C4F88870CA
:1022C0000320BCE735F8020BC0F30800E0E7C4F8D0
:1022D00088700020B3E7FEE730B587B01421684668
:1022E000FDF7D0FF1E48C16C41F00401C164C16C10
:1022F00001F004010591C16C41F02001C164C16C81
:1023000001F020010591C16C41F00201C164C16C72
:1023100001F002010591C16C41F00101C164C06C82
:10232000104D00F001000590012250212846FEF7D3
:1023300029FA00244FF43050CDE9000469462846BC
:102340000294FEF793F8502000900120CDE901049B
:10235000694628460394FEF789F807B030BD0000AF
:1023600000100240000800480C4810B50A490160FE
:102370000F214160002142F20F72C0E90212016197
:1023800041618161FFF7FAFA002803D0BDE81040EF
:10239000FEF76AB810BD0000004801408800002028
:1023A000184810B5164901604FF4E1314160002131
:1023B00081600C22C160C0E904128161C1610162C7
:1023C00041628162FFF76EFE08B1FEF74DF8002111
:1023D0000C48FFF7EDFD08B1FEF746F8002109486B
:1023E000FFF76CFD08B1FEF73FF80648FFF708FD60
:1023F000002803D0BDE81040FEF736B810BD00003D
:1024000000480040D4000020FEE7FEE77047704718
:10241000FEF7F2B900B593B038216846FDF732FFF8
:1024200014210EA8FDF72EFF0020FEF7F9FA022076
:10243000C1010391402104910121CDE908010090DF
:102440001421CDE90A1007900C900D906846FEF714
:10245000AFFF08B172B6FEE70F200E9003200F9079
:10246000002010901190129004210EA8FEF7C2FDDA
:10247000002801D072B6FEE713B000BD0248016823
:1024800041F470010160704788ED00E00148FFF7FA
:10249000D8BB0000880000202DE9F0430268264BDD
:1024A000264D274E274C4FF08049984207D048458B
:1024B00005D0A84203D0B04201D0A04203D122F0FF
:1024C00070074A683A43204FDFF880C0DFF8808009
:1024D00098420DD048450BD0A84209D0B04207D051
:1024E000A04205D0B84203D0604501D0404503D199
:1024F00022F44075CA682A434D6922F080022A43BB
:1025000002608A68C2620A688262984207D0A0426A
:1025100005D0B84203D0604501D0404501D10969DA
:102520000163012141610169C90703D0016921F0FB
:1025300001010161BDE8F083002C0140000400406E
:1025400000080040003401400040014000440140C8
:102550000048014030B5416EB9B102689168926897
:10256000C1F342610B4B520F9C5CE50003F1080480
:10257000A25CB5FBF2F2A0F86A205A5C615CD20062
:10258000B2FBF1F1A0F8681030BD0121A0F86A108B
:10259000F8E70000DC32000870B50446806AFF28C6
:1025A00004D940F6AE416CA000F0C6FC94F82800B7
:1025B000000710D5A06B38B1B0F5004F04D040F63D
:1025C000B34165A000F0B8FC20684168A26B21F41B
:1025D00000411143416094F82800C00710D0E06A20
:1025E00038B1B0F5003F04D040F6BA415AA000F02F
:1025F000A3FC20684168E26A21F400311143416084
:1026000094F82800800710D5206B38B1B0F5803FD2
:1026100004D040F6C14150A000F08EFC2068416813
:10262000226B21F480311143416094F82800400767
:1026300010D5606B38B1B0F5802F04D040F6C8419A
:1026400045A000F079FC20684168626B21F480218C
:102650001143416094F82800C00610D5E06B38B1F2
:10266000B0F5805F04D040F6CF413BA000F064FCA1
:1026700020688168E26B21F480511143816094F8F5
:102680002800800610D5206C38B1B0F5005F04D06A
:1026900040F6D64130A000F04FFC20688168226CE3
:1026A00021F400511143816094F8280040063DD583
:1026B0003849206888420DD0374988420AD03749C6
:1026C000884207D03649884204D040F6DD4122A036
:1026D00000F032FC606C4FF4801530B1A84204D099
:1026E00040F6DE411CA000F027FC20684168626CC7
:1026F00021F4801111434160606CA84216D1A06C96
:1027000068B1B0F5001F0AD0B0F5800F07D0B0F562
:10271000C00F04D040F6E3410FA000F00DFC20688C
:102720004168A26C21F4C0011143416094F8280073
:10273000000610D5E06C38B1B0F5002F04D040F69B
:10274000EB4105A000F0F8FB20684168E26C21F441
:1027500000211143416070BD2E2E2F4472697665B1
:1027600072732F53544D3332473478785F48414C5D
:102770005F4472697665722F5372632F73746D3381
:1027800032673478785F68616C5F756172742E634C
:1027900000000000003801400044004000480040B4
:1027A000004C00402DE9F84300260446C0F8906034
:1027B000FEF71CF88046206800684FF020050007EF
:1027C0006FF07E4713D54346002229042046009728
:1027D00000F050FA58B1216851E8000F20F0800055
:1027E00041E80002002AF6D1C4F8885021E02068B0
:1027F0000068400722D5434600224FF4800120465E
:10280000009700F037FAC8B1216851E8000F20F4B2
:10281000907041E80002002AF6D12068083050E8A4
:10282000001F21F0010140E80012002AF5D1C4F890
:102830008C5084F884600320BDE8F883C4F8885085
:10284000C4F88C5044F86C6F666026760020F3E77D
:1028500010B5026852E8001F21F4907142E800139D
:10286000002BF6D10E4B0268083252E8001F1940C7
:1028700042E80014002CF6D1C16E012908D101688C
:1028800051E8002F22F0100241E80023002BF6D17E
:102890002021C0F88C100021C166416710BD0000E6
:1028A000FEFFFFEF2DE9F04704464068D6490026B9
:1028B000884204D340F6DD31D4A000F03DFBA0688F
:1028C0004FF48055B0F1805F07D030B1A84204D0FA
:1028D00040F6DE31CDA000F02FFBDB4F20687914ED
:1028E000B842E0684FF4006906D100281AD0884247
:1028F00018D040F6E13112E0A8420AD048B1B0F554
:10290000405F06D0884204D040F6E531BFA000F019
:1029100013FB206A30B1484504D040F6E631BBA035
:1029200000F00AFB20694FF4806848B1404507D0A9
:10293000B0F5C06F04D040F6E931B4A000F0FCFA65
:10294000606930F00C0100D120B940F6EA31AFA047
:1029500000F0F2FAA06968B1B0F5807F0AD0B0F556
:10296000007F07D0B0F5407F04D040F6EB31A7A040
:1029700000F0E2FAE0694FF4004530B1A84204D01B
:1029800040F6EC31A1A000F0D7FA606AD0B101287E
:1029900018D0022816D0032814D0042812D00528F5
:1029A00010D006280ED007280CD008280AD00928F5
:1029B00008D00A2806D00B2804D040F6ED3193A0A9
:1029C00000F0BAFA2169A068E2690843616911431D
:1029D000084321680A689D4B1A4002430A60206838
:1029E0004168E26821F44051114341602168A069C7
:1029F000B94201D0226A10438A68954B1A400243BB
:102A00008A602068C16A626A21F00F011143C162C5
:102A10009049226890488A420DD1D0F8880010F081
:102A2000030006D0012853D0022840D003283DD10E
:102A300050E001203BE089498A420BD1D0F8880060
:102A400010F00C0033D0042831D008283ED00C28D8
:102A50002CD13FE082498A420BD1D0F8880010F097
:102A6000300024D0102833D020282FD030281DD17A
:102A700030E07C498A420BD1D0F8880010F0C000C9
:102A800015D0402824D0802820D0C0280ED121E0A5
:102A9000BA420BD1D0F8880010F4406007D040450E
:102AA00016D0484512D0B0F5406F13D010206E49B3
:102AB000DFF8B8814FF00009BA423DD160B1022879
:102AC0000DD004280DD0082875D133E00220EEE7A0
:102AD0000420ECE70820EAE7FEF70EFC03E00846D6
:102AE00002E0FEF72DFC20B3616A676838F8112018
:102AF00007EB4703B0FBF2F18B4273D8B1EB073F12
:102B000070D80023C8461946FDF784FB090241EA44
:102B1000106102027808101841EB08013A460023C0
:102B2000FDF778FB524AA0F5407191425AD82168CE
:102B3000C86058E02846D7E7E2694FF6EF77AA4227
:102B40002DD109284ED2DFE800F005080B4D0D4DC0
:102B50004D4D2800FEF7D0FB06E0FEF7DFFB03E05B
:102B6000084602E0FEF7ECFBE8B3616A38F81110A2
:102B7000B0FBF1F04100606801EB5001B1FBF0F0F7
:102B8000A0F11001B9422DD84FF6F0710140C0F309
:102B9000420001432068C16025E02846E5E7092896
:102BA00020D2DFE800F005090C1F0E1F1F1F2C00AC
:102BB000FEF7A2FB07E015E0FEF7B0FB03E00846D6
:102BC00002E0FEF7BDFB70B1616A38F81110B0FB8E
:102BD000F1F1606801EB5001B1FBF0F0A0F11001E0
:102BE000B9420ED901260120A4F86A0024F8680F22
:102BF0003046C4F80C90C4F81090BDE8F087284621
:102C0000E2E780B293E70000311A1E012E2E2F4416
:102C10007269766572732F53544D33324734787826
:102C20005F48414C5F4472697665722F5372632F1F
:102C300073746D3332673478785F68616C5F756187
:102C400072742E630000000000800040F369FFCF23
:102C5000FFF4FF1100380140001002400044004022
:102C600000480040004C00400024F400C43200083A
:102C7000FFFC0F002DE9F047994617460D46044624
:102C80004FF00008089E33E0701C31D0FDF7AEFD18
:102C9000A0EB0900B04218D8BEB12068016849070E
:102CA00026D5802D24D0402D22D0C169C9430907E3
:102CB0000DD4082505622046FFF7CAFDC4F89050E0
:102CC00084F884800120BDE8F0870320FBE7C06919
:102CD000C04300050CD421684FF400600862204610
:102CE000FFF7B6FD2020C4F8900084F88480ECE75C
:102CF0002068C06935EA000004D00020B842C3D083
:102D00000020E0E70120F9E7FEE700000FB4084BE0
:102D100010B504A902AA039800F02CF8044602A9F1
:102D2000002000F003F9204610BC5DF814FB000001
:102D30002D2F00080907090E002804DB00F1E02010
:102D400080F80014704700F00F0000F1E02080F8D8
:102D5000141D704702E008C8121F08C1002AFAD1EA
:102D600070477047002001E001C1121F002AFBD10B
:102D7000704700002DE9FF4F8BB09A460F4605467D
:102D8000002606E025280BD052460D9990476D1C71
:102D9000761C28780028F5D10FB03046BDE8F08FBA
:102DA0000024A0460122604900E0044315F8013FD9
:102DB000203B02FA03F00842F7D128782E2817D1D9
:102DC00015F8010F44F004042A280ED06FF02F02EA
:102DD0002878A0F1300109290AD808EB880102EB14
:102DE000410100EB01086D1CF2E757F8048B6D1CE4
:102DF000287869283ED006DC0028CDD063280BD087
:102E0000642804D136E0732810D075284BD0524680
:102E10000D999047761C85E017F8040B8DF800009B
:102E200000208DF80100E946012003E057F8049BDB
:102E30004FF0FF3061074FF0000401D40AE0641C3A
:102E400044450DDA8442FADB19F804100029F6D162
:102E500006E0641C8442FCDB19F804100029F8D158
:102E6000264404E019F8010B52460D999047641E60
:102E7000F8D257E001CF4FF00A0B002802DA4042A7
:102E80002D2102E0210504D52B218DF824100121EC
:102E900003E0E10705D02021F7E70DF120090891B3
:102EA0000CE00021F9E701CF4FF00A0BF9E7594692
:102EB000FDF7FAF901F1300209F8012D0028F6D1E9
:102EC000ADEB090000F1200B600701D44FF00108C1
:102ED000D84502DDA8EB0B0000E00020804600246E
:102EE00006E009A85246005D0D999047641C761CC7
:102EF00008988442F5DB04E0302052460D99904753
:102F0000761CB8F10001A8F10108F5DC05E019F81C
:102F1000010B52460D999047761CBBF10001ABF1B5
:102F2000010BF4DC6D1C34E7092801000A68531C0E
:102F30000B6010707047000000B599B00B46024658
:102F400007A16846FFF7E2FE6846FDF7A6F982B2E0
:102F50004FF47A7369460E48FFF766F919B000BD61
:102F600057726F6E6720706172616D657465727300
:102F70002076616C75653A2066696C652025732042
:102F80006F6E206C696E652025640D0A00000000DC
:102F9000D400002000EB8100C260704770B5044689
:102FA0000079A1688847E1784A0702D02288521C3C
:102FB0002280B0EBD11F0CD04FF0005202EBB111C8
:102FC0004FEAB161C1F3C202E170032A04D360F396
:102FD000C71121F03800E070E078002500F007010B
:102FE0004FF49676062973D2DFE801F0031D3E7C8C
:102FF000B29AC0F38011B1EBD01FA07820F0F0009E
:103000000ED1A070E16809B1204688472580A078DC
:1030100020F00F00401CA070E0787DE0E07070BDF3
:103020008030A07070BDC0F38011B1EBD01F09D00B
:10303000A07820F0F0001030A0702169B1B32046D4
:10304000884760E02088B0F57A7FEBD9A07820F03F
:10305000F0005030A070216A09B120468847E0781E
:1030600020F00700401DD9E7C0F38011B1EBD01F5D
:103070001DD1A07820F0F000A070E16809B12046D1
:103080008847A078C143090706D04FF0805101EB73
:1030900030104FEA3070A070616909B1204688474E
:1030A0002580E07820F00700C01CB7E72BE02088DF
:1030B000B042B7D9A07800F00F01012902D002294F
:1030C00007D044E020F0F0003030A070A16905E0A6
:1030D0003EE020F0F0004030A070E16991B320465E
:1030E000884734E0C0F38011B1EBD01F11D0A07835
:1030F00020F0F0001030A070216909B12046884707
:103100002088B04223D22580E07820F00700801C80
:1031100084E72188B14285D920F00700401C7DE773
:10312000C0F38011B1EBD01FA07820F0F0000AD1DD
:103130006030A070616A00293FF474AF2046BDE89A
:103140007040084703E01030A0702169C6E7E078BE
:1031500020F0070062E700002DE9F0410F461E460F
:10316000154604462C21FDF78DF8A07820F0F000DC
:103170008030A070A760E07845B120F0800000BFEB
:1031800065F38610E0702671BDE8F08140F08000A4
:10319000F6E70000074A11680B4605E0814202D1BC
:1031A0004FF0FF307047896A0029F7D183621060C1
:1031B000002070472C000020054810B5046803E08B
:1031C0002046FFF7EBFEA46A002CF9D110BD0000E9
:1031D0002C000020FDF718FBFFF71CF9FFF77CF827
:1031E000FFF7C2F8FFF7DCF8002301221E491F4851
:1031F000FFF7B2FF1D4801231A461B492C30FFF789
:10320000ABFF1B4A00211948FFF7C4FE194A0121F0
:103210001648FFF7BFFE184A02211448FFF7BAFE0E
:10322000164A03211148FFF7B5FE154A04210F483D
:10323000FFF7B0FE134A05210C48FFF7ABFE124A18
:1032400006210A48FFF7A6FE0848FFF7A3FF074834
:103250002C30FFF79FFF0D48FEF76EFC9D210CA060
:10326000FFF76AFEFEE70000A532000830000020EC
:10327000B50300080D040008E90300084104000834
:1032800039030008910300086D030008880000203E
:103290002E2E2F436F72652F5372632F6D61696EEF
:1032A0002E630000064A18B1012804D000207047A0
:1032B0004FF4806101E04FF400611046FDF736BA2B
:1032C00000080048010002000400060008000A008F
:1032D0000C001000200040008000000101010103EB
:1032E00007010000080402040801010100000000B9
:1032F00000000000010203040607080900000000A6
:10330000010203044C4F4E475F50524553535F48F0
:103310004F4C440D0A000000444F55424C455F435A
:103320004C49434B0D0A000053494E474C455F43FF
:103330004C49434B0D0A000050524553535F444FD4
:10334000574E0D0A0000000050524553535F555030
:103350000D0A000050524553535F524550454154A9
:103360000D0A00004C4F4E475F50524553535F5378
:10337000544152540D0A0000983300080000002008
:1033800030000000542D0008C83300083000002031
:1033900038050000642D0008383300084833000861
:1033A0005433000828330008183300086433000839
:1033B00004330008100000000100000000000000BD
:0833C0000024F40000000000ED
:04000005080001D915
:00000001FF
