:020000040800F2
:10000000C0040020F1010008131100085710000877
:10001000111100088D0200085D12000800000000A8
:1000200000000000000000000000000017110008A0
:100030008F020008000000001511000819110008C7
:100040000B0200080B0200080B0200080B0200085C
:100050000B0200080B0200080B0200080B0200084C
:100060000B0200080B0200080B0200080B0200083C
:100070000B0200080B0200080B0200080B0200082C
:100080000B020008000000000B0200080B02000831
:100090000B0200080B0200080B0200080B0200080C
:1000A0000B0200080B020008951100080B02000863
:1000B0000B0200080B0200080B0200080B020008EC
:1000C0000B0200080B0200080B0200080B020008DC
:1000D0000B0200080B0200080B0200080B020008CC
:1000E0000B0200080B0200080B0200080B020008BC
:1000F0000B0200080B0200080B02000800000000C1
:10010000000000000B020008000000000B020008C5
:100110000B020008000000000B0200080B020008A0
:100120000B0200080B0200080B0200080B0200087B
:100130000B02000800000000000000000B02000895
:100140000B0200080B020008000000000000000085
:10015000000000000000000000000000000000009F
:100160000000000000000000000000000B0200087A
:100170000B0200080000000000000000000000006A
:10018000000000000B02000800000000000000005A
:10019000000000000000000000000000000000005F
:1001A00000000000000000000B0200080B02000825
:1001B0000B0200080B0200080B0200080000000000
:1001C000000000000B02000800000000000000001A
:1001D0000B0200080B020008DFF810D000F02CF82A
:1001E00000480047DD140008AFF30080C004002081
:1001F0000648804706480047FEE7FEE7FEE7FEE7C1
:10020000FEE7FEE7FEE7FEE7FEE7FEE785110008F2
:10021000D9010008D2B201E000F8012B491EFBD23F
:1002200070470022F6E710B513460A460446194601
:10023000FFF7F0FF204610BD064C074D06E0E068D2
:1002400040F0010394E8070098471034AC42F6D31D
:10025000FFF7C6FF74150008941500080349012034
:1002600008701021024800F03EB900000000002094
:10027000000800480349022008704021024800F0AD
:1002800032B900000000002000080048FEE7704777
:1002900072B6FEE72DE9F04FDFF820920023012629
:1002A0000324A9F1040B85B00F2709F1040AABF16F
:1002B000040EFAE006FA03F52A407CD091F804C057
:1002C0000CF0030CBCF1010F02D0BCF1020F26D1DF
:1002D000D0F808C0CDF800C04FEA430C04FA0CF87F
:1002E000CDF810C0DDF800C02CEA080CCDF800C035
:1002F000D1F80C80DDF810C008FA0CF8DDF800C069
:1003000048EA0C08C0F80880D0F804C02CEA050CB4
:100310000D79C5F300159D4045EA0C0545600D7942
:10032000ED43AD070ED0C5684FEA430804FA08FC58
:1003300025EA0C05D1F808C00CFA08FC4CEA050CBB
:10034000C0F80CC00D7905F00305022D16D1DD08AB
:1003500000EB850CCDF808C0DCF820805D074FEA83
:10036000D56C07FA0CF528EA05080D6905FA0CF5B5
:10037000DDF808C045EA0805CCF8205005684FEACA
:10038000430CCDF808C004FA0CFC25EA0C0591F8E2
:1003900004C00CF00308DDF808C008FA0CF848EABD
:1003A0000508C0F800804D6815F4403F7CD0444DEE
:1003B000D5F860C000E077E04CF0010CC5F860C0F3
:1003C0002D6E23F0030C05F0010500953D4D6544AD
:1003D0000295AD684FEA837C4FEA1C7807FA08FC67
:1003E00025EA0C05B0F1904F06D0DFF8DCC060457F
:1003F00005D14FF0010C20E04FF0000C1DE0DFF8BC
:10040000CCC0604502D14FF0020C16E0DFF8C0C04E
:10041000604502D14FF0030C0FE0DFF8B8C0604533
:1004200002D14FF0040C08E0DFF8ACC0604502D107
:100430004FF0050C01E04FF0060C0CFA08FC4CEAFA
:10044000050C029DC5F808C0D9F80050CC46D1F87B
:10045000048095435FEAC82800D51543CCF80050C6
:10046000DAF80050D446D1F8048095435FEA882832
:1004700000D51543CCF80050DBF80050DC46D1F82D
:10048000048095435FEA883800D51543CCF80050C6
:10049000DEF80050F446D1F8048095435FEAC8388E
:1004A00000D51543CCF800505B1C0A6832FA03F5FE
:1004B0007FF400AF05B0BDE8F08F000008040140F4
:1004C00000100240000001400004004800080048FD
:1004D000000C004800100048001400480069084063
:1004E00000D001207047426921EA02030A4043EA32
:1004F0000241816170470AB1816170478162704732
:1005000001488068704700000400002002488168AC
:1005100042681144816070470400002010B5002437
:10052000032000F073F8002000F008F808B101245F
:1005300001E000F025F8204610BD000070B50E4E19
:1005400005460024706898B14FF47A71B1FBF0F061
:100550000A490968B1FBF0F000F0F8FB40B9102D32
:1005600006D200222946501E00F030F8356000E027
:100570000124204670BD000004000020100000206F
:100580000A4882B0016E41F001010166016E01F07E
:1005900001010091816D41F080518165806D00F015
:1005A0008050009002B000F0A1B80000001002409E
:1005B000002809DB00F01F02012191404009800062
:1005C00000F1E020C0F8001170470000F0B40E4BBD
:1005D0001B680C46C3F30223C3F10705042D00D9A1
:1005E0000425191D072901D2002300E0DB1E012686
:1005F00006FA05F1491E214099409E40761E16409C
:100600003143F0BC00F02BBE0CED00E0064900F0D9
:10061000070208684FF6FF03184040EA0220034A29
:1006200010430860704700000CED00E00000FA0580
:100630002B492C4B0A6832214A432B4940B1B0F573
:10064000007F086829D020F4C06040F480602CE06E
:100650000868C0F34120022804D051F8800F20F42C
:10066000807022E0D1F8800020F48070C1F8800012
:10067000086820F4C06040F400700860B2FBF3F03A
:10068000401C00E0401E4A69520501D50028F9D1FE
:10069000486940050AD503207047C0F3412002286D
:1006A00006D051F8800F40F4807008600020704739
:1006B000D1F8800040F48070C1F88000086820F410
:1006C000C06040F400700860B2FBF3F0401C00E032
:1006D000401E4A695205DBD50028F9D1D8E7000051
:1006E0001000002040420F00007000400248816866
:1006F00041F4804181607047007000402DE9F0476F
:100700000E4605004FF0000725D0DFF8AC81D8F881
:10071000000000F00F00B0420CD2D8F8001021F019
:100720000F013143C8F80010D8F8000000F00F00A6
:10073000B04210D12968614CC80741F2883A5AD0BA
:100740006868DFF87C91032808D0022820682DD043
:10075000400500282CDB0120BDE8F08720688001DF
:10076000F9D5E06800F00302E068C0F30310401C14
:10077000032A19D0534A00BFB2FBF0F0E268C2F37B
:1007800006225043E268C2F34162521C5200B0FBA1
:10079000F2F0484517D9A06810F0F00F0CD0880788
:1007A00011D5A86840B10EE0474AE5E78003D0E7DD
:1007B00000F092F8484506D9A06820F0F00040F01B
:1007C0008000A0608027A068696820F003000843CB
:1007D000A060FFF795FE814606E000BFFFF790FEA0
:1007E000A0EB090151453AD8A068696800F00C00F7
:1007F000B0EB810FF2D12868810714D5400703D5EB
:10080000A06840F4E060A0602878000705D5A068E3
:1008100020F4605040F4E060A060A068A96820F077
:10082000F000084304E0802F03D1A06820F0F0001E
:10083000A060D8F80010404601F00F01B14216D96F
:10084000016821F00F0131430160FFF759FE0746AF
:1008500007E000BFFFF754FEC11B514501D903203B
:100860007AE7D8F8000000F00F00B042F2D1287803
:10087000400705D5A068E96820F4E0600843A0605F
:100880002878000706D5A068296920F4605040EA5E
:10089000C100A06000F020F8A1680C4AC1F3031168
:1008A000515C01F01F01C84009490860094800680F
:1008B000BDE8F047FFF742BE0020024000100240B2
:1008C00000B4C4040024F40000366E01641500086E
:1008D0001000002004000020184910B58868C0F3FB
:1008E00081021748012A0BD08A68164BC2F3810295
:1008F000022A06D08A68C2F38102032A03D00020AC
:1009000010BD184610BDCA6802F00304CA68C2F3DD
:100910000312521C032C02D0B0FBF2F001E0B3FB37
:10092000F2F0CA68C968C2F306225043C1F34161BC
:10093000491C4900B0FBF1F010BD0000001002405E
:100940000024F40000366E012DE9F84304007AD04B
:100950002078F84DC00747D0A868E96800F00C007F
:1009600001F003010C2802D0082817D001E0032968
:1009700014D06068B0F5803F17D0B0F5A02F28687C
:1009800017D020F480302860286820F48020286068
:100990006068E0B1FFF7B4FD064614E02868800304
:1009A00022D560680028D2D01EE0286840F480304C
:1009B000EDE740F480202860F7E700BFFFF7A0FDD7
:1009C000801B642870D828688003F7D50CE0FFF7F7
:1009D00097FD064605E000BFFFF792FD801B6428E7
:1009E000F0D828688003F7D4207880074CD5A86811
:1009F000E96800F00C0001F003010C2802D0042883
:100A00000DD001E002290AD0E068002828682BD028
:100A100040F480702860FFF773FD064619E02868EF
:100A2000400502D5E068002891D06868217C20F05C
:100A3000FE4040EA01606860BF480068FFF77EFD45
:100A4000002800D120E072E1FFF75AFD801B022848
:100A5000B8D828684005F7D56868217C20F0FE40AA
:100A600040EA016068600FE020F480702860FFF7C2
:100A700047FD064605E000BFFFF742FD801B022848
:100A8000A0D828684005F7D42078000729D56069E8
:100A90000028D5F8940013D040F00100C5F8940068
:100AA000FFF72EFD064606E090E000BFFFF728FDA9
:100AB000801B022886D8D5F894008007F6D510E070
:100AC00020F00100C5F89400FFF71AFD064604E087
:100AD000FFF716FD801B022878D8D5F89400800710
:100AE000F6D42078400761D5A86D0026C00008D450
:100AF000A86D40F08050A865A86D012600F08050D8
:100B000000908E480168C90511D40168804641F4FF
:100B100080710160FFF7F4FC074604E0FFF7F0FC8A
:100B2000C01B022852D8D8F80000C005F6D5A0682E
:100B3000012815D00528D5F8900016D020F0010026
:100B4000C5F89000D5F8900020F00400C5F890009A
:100B5000A06841F28838B8B1FFF7D2FC07460EE032
:100B6000D5F8900040F00100F0E740F00400C5F82F
:100B70009000F5E7FFF7C4FCC11B414526D8D5F826
:100B800090008007F6D50CE0FFF7BAFC074604E0BA
:100B9000FFF7B6FCC11B414518D8D5F89000800777
:100BA000F6D41EB1A86D20F08050A865207880068C
:100BB00029D5A0690028D5F8980013D040F001008D
:100BC000C5F89800FFF79CFC064606E075E000BFFC
:100BD000FFF796FC801B02286FD8D5F89800800795
:100BE000F6D510E020F00100C5F89800FFF788FC6A
:100BF000064604E0FFF784FC801B02285DD8D5F888
:100C000098008007F6D4E069F0B3A968C1F38101C8
:100C100003295DD00228286820F08070286003D066
:100C2000FFF76EFC04464BE0FFF76AFC064604E063
:100C3000FFF766FC801B02283FD828688001F7D4A4
:100C4000F4E908016FF00F0202EB01110843218A59
:100C50005204490802EB4151A26841EA02210843CB
:100C6000217D4FF07E42490802EB41610843217B20
:100C700040EAC160E968324A11400843E8602868E8
:100C800040F08070286000E05EE0E86840F080702E
:100C9000E860FFF735FC044605E000BFFFF730FCD5
:100CA000001B022809D828688001F7D54CE000BF56
:100CB000FFF726FC001B022802D90320BDE8F883B9
:100CC00028688001F4D4E8681E490840E8603BE0E9
:100CD0000128F3D0E868226A00F00301914226D18E
:100CE000616A00F0F0020901103991421FD1A26A35
:100CF00000F4FE41B1EB022F19D194F82C2000F042
:100D00007841B1EBC26F12D1218E00F4C0024908C4
:100D10004905A1F50011914209D194F8341000F071
:100D2000C06049084906A1F1007181420CD0012040
:100D3000C4E70000001002400400002000700040E2
:100D40000C809F01FCFFEEFE0020B7E710B5401EAF
:100D5000B0F1807F01D3012010BD4FF0E02460612D
:100D60000F21601700F07BFA0020A06107202061AE
:100D7000002010BD7047704770477047704770473C
:100D8000704710B5040003D094F83D0010B107E09F
:100D9000012010BD002084F83C00204600F022F81D
:100DA000022084F83D00211D206800F0F9F901209F
:100DB00084F8480084F83E0084F83F0084F840003E
:100DC00084F8410084F8420084F8430084F8440029
:100DD00084F8450084F8460084F8470084F83D0014
:100DE000002010BD08B500680B49884212D10B489D
:100DF000016E41F480210166006E002200F4802023
:100E0000009011461A20FFF7E1FBBDE808401A20C8
:100E1000FFF7CEBB08BD00000048014000100240B3
:100E200090F83D10012901D001207047022180F87F
:100E30003D100168CA6842F00102CA6000681049AA
:100E400088420ED0B0F1804F0BD00E49884208D0B6
:100E50000D49884205D00D49884202D00C4988428C
:100E600007D181680B4A1140062906D0B1F5803FB1
:100E700003D0016841F001010160002070470000CB
:100E8000002C0140000400400008004000340140F4
:100E9000004001400700010070472DE9F041044681
:100EA0000068C66805694FF00007A90713D5B107A8
:100EB00011D5F91E01610120207720688069800723
:100EC000204602D0FFF7E8FF04E000F0B7F8204624
:100ED00000F0B5F82777680716D5700714D5216894
:100EE0006FF004000861022020772068806910F408
:100EF000407F204602D0FFF7CFFF04E000F09EF8CD
:100F0000204600F09CF82777280715D5300713D521
:100F100021686FF008000861042020772068C0690C
:100F20008007204602D0FFF7B7FF04E000F086F804
:100F3000204600F084F82777E80616D5F00614D589
:100F400021686FF010000861082020772068C069D0
:100F500010F4407F204602D0FFF79EFF04E000F02F
:100F60006DF8204600F06BF82777E80708D0F00707
:100F700006D021686FF001000861204600F060F89B
:100F8000280601D4A80408D5300606D521686FF4D8
:100F9000025008612046FFF7EEFEE80508D530064E
:100FA00006D521686FF4807008612046FFF7E2FEE5
:100FB000680608D5700606D521686FF04000086104
:100FC000204600F047F8A80608D5B00606D52168E7
:100FD0006FF0200008612046FFF7CEFEE80208D53A
:100FE000F00206D521686FF4801008612046FFF7F3
:100FF000C5FEA80208D5B00206D521686FF400101E
:1010000008612046FFF7B9FE680208D5700206D5D0
:1010100021686FF4800008612046FFF7B0FE2802C7
:101020000AD5300208D521686FF400000861204617
:10103000BDE8F041FFF7A4BEBDE8F08170477047FE
:1010400000680349884201D100F03ABA70470000B5
:10105000004801407047FEE730B587B0142168466C
:10106000FFF7DFF81A48C16C41F00401C164C16C9C
:1010700001F004010591C16C41F02001C164C16C13
:1010800001F020010591C16C41F00101C164C06C07
:10109000104D00F001000590012250212846FFF775
:1010A0002AFA00244FF43050CDE90004694628465E
:1010B0000294FFF7EFF8502000900120CDE90104E1
:1010C000694628460394FFF7E5F807B030BD0000F5
:1010D00000100240000800480C4810B50A490160A1
:1010E0000F214160002142F20F72C0E9021201613A
:1010F00041618161FFF745FE002803D0BDE8104043
:10110000FFF7C6B810BD0000004801407000002085
:10111000FEE7FEE770477047FFF7F8B900B593B0F8
:1011200038216846FFF77DF814210EA8FFF779F8FB
:101130000020FFF77DFA0220C101039140210491B4
:101140000121CDE9080100901421CDE90A10079092
:101150000C900D906846FFF7F7FB08B172B6FEE7FA
:101160000F200E9003200F900020109011901290ED
:1011700004210EA8FFF7C2FA002801D072B6FEE7DC
:1011800013B000BD0248016841F47001016070476E
:1011900088ED00E00148FFF780BE000070000020ED
:1011A0002DE9F0430268264B264D274E274C4FF081
:1011B0008049984207D0484505D0A84203D0B042A4
:1011C00001D0A04203D122F070074A683A43204F71
:1011D000DFF880C0DFF8808098420DD048450BD002
:1011E000A84209D0B04207D0A04205D0B84203D0EF
:1011F000604501D0404503D122F44075CA682A43B6
:101200004D6922F080022A4302608A68C2620A683D
:101210008262984207D0A04205D0B84203D0604510
:1012200001D0404501D10969016301214161016992
:10123000C90703D0016921F001010161BDE8F08314
:10124000002C014000040040000800400034014030
:10125000004001400044014000480140FEE709070A
:10126000090E002804DB00F1E02080F8001470472C
:1012700000F00F0000F1E02080F8141D704702E03C
:1012800008C8121F08C1002AFAD170477047002011
:1012900001E001C1121F002AFBD1704700EB810061
:1012A000C260704770B504460079A1688847E1784C
:1012B0004A0702D02288521C2280B0EBD11F0CD0EA
:1012C0004FF0005202EBB1114FEAB161C1F3C2021B
:1012D000E170032A04D360F3C71121F03800E070F5
:1012E000E078002500F007014FF49676062973D2C6
:1012F000DFE801F0031D3E7CB29AC0F38011B1EB30
:10130000D01FA07820F0F0000ED1A070E16809B1E4
:10131000204688472580A07820F00F00401CA07050
:10132000E0787DE0E07070BD8030A07070BDC0F3EB
:101330008011B1EBD01F09D0A07820F0F000103060
:10134000A0702169B1B32046884760E02088B0F5DD
:101350007A7FEBD9A07820F0F0005030A070216A9D
:1013600009B120468847E07820F00700401DD9E702
:10137000C0F38011B1EBD01F1DD1A07820F0F00098
:10138000A070E16809B120468847A078C1430907E9
:1013900006D04FF0805101EB30104FEA3070A07052
:1013A000616909B1204688472580E07820F0070070
:1013B000C01CB7E72BE02088B042B7D9A07800F076
:1013C0000F01012902D0022907D044E020F0F000EB
:1013D0003030A070A16905E03EE020F0F000403020
:1013E000A070E16991B32046884734E0C0F38011D2
:1013F000B1EBD01F11D0A07820F0F0001030A07019
:10140000216909B1204688472088B04223D225802F
:10141000E07820F00700801C84E72188B14285D95C
:1014200020F00700401C7DE7C0F38011B1EBD01F16
:10143000A07820F0F0000AD16030A070616A002925
:101440003FF474AF2046BDE87040084703E0103019
:10145000A0702169C6E7E07820F0070062E700008D
:101460002DE9F0410F461E46154604462C21FEF795
:10147000D8FEA07820F0F0008030A070A760E0785F
:1014800045B120F0800000BF65F38610E070267142
:10149000BDE8F08140F08000F6E70000074A1168DF
:1014A0000B4605E0814202D14FF0FF307047896A58
:1014B0000029F7D1836210600020704714000020DB
:1014C000054810B5046803E02046FFF7EBFEA46A68
:1014D000002CF9D110BD000014000020FFF71EF809
:1014E000FFF71CFEFFF7B8FDFFF7F6FD00231A46D5
:1014F0000F491048FFF7B4FF0E48012300220C49A2
:101500002C30FFF7ADFF0C4A00210A48FFF7C6FE5A
:101510000A4A01210748FFF7C1FE0648FFF7BEFF50
:1015200004482C30FFF7BAFF0548FFF779FCFEE7C7
:1015300045150008180000205D020008750200082B
:1015400070000020064A18B1012804D0002070471E
:101550004FF4806101E04FF400611046FEF7BEBF1A
:101560000008004800000000000000000102030421
:101570000607080994150008000000201800000064
:101580007E120008AC15000818000020A804000016
:101590008E12000800000000100000000100000092
:0C15A000000000000024F4000000000027
:04000005080001D915
:00000001FF
